{
	"contractName": "Betting",
	"abi": [
		{
			"inputs": [],
			"stateMutability": "nonpayable",
			"type": "constructor"
		},
		{
			"stateMutability": "payable",
			"type": "fallback",
			"payable": true
		},
		{
			"inputs": [],
			"name": "minimumBet",
			"outputs": [
				{
					"internalType": "uint256",
					"name": "",
					"type": "uint256"
				}
			],
			"stateMutability": "view",
			"type": "function",
			"constant": true
		},
		{
			"inputs": [],
			"name": "owner",
			"outputs": [
				{
					"internalType": "address payable",
					"name": "",
					"type": "address"
				}
			],
			"stateMutability": "view",
			"type": "function",
			"constant": true
		},
		{
			"inputs": [
				{
					"internalType": "address",
					"name": "",
					"type": "address"
				}
			],
			"name": "playerInfo",
			"outputs": [
				{
					"internalType": "uint256",
					"name": "amountBet",
					"type": "uint256"
				},
				{
					"internalType": "uint16",
					"name": "teamSelected",
					"type": "uint16"
				}
			],
			"stateMutability": "view",
			"type": "function",
			"constant": true
		},
		{
			"inputs": [
				{
					"internalType": "uint256",
					"name": "",
					"type": "uint256"
				}
			],
			"name": "players",
			"outputs": [
				{
					"internalType": "address payable",
					"name": "",
					"type": "address"
				}
			],
			"stateMutability": "view",
			"type": "function",
			"constant": true
		},
		{
			"inputs": [],
			"name": "totalBetsOne",
			"outputs": [
				{
					"internalType": "uint256",
					"name": "",
					"type": "uint256"
				}
			],
			"stateMutability": "view",
			"type": "function",
			"constant": true
		},
		{
			"inputs": [],
			"name": "totalBetsTwo",
			"outputs": [
				{
					"internalType": "uint256",
					"name": "",
					"type": "uint256"
				}
			],
			"stateMutability": "view",
			"type": "function",
			"constant": true
		},
		{
			"inputs": [],
			"name": "kill",
			"outputs": [],
			"stateMutability": "nonpayable",
			"type": "function"
		},
		{
			"inputs": [
				{
					"internalType": "address payable",
					"name": "player",
					"type": "address"
				}
			],
			"name": "checkPlayerExists",
			"outputs": [
				{
					"internalType": "bool",
					"name": "",
					"type": "bool"
				}
			],
			"stateMutability": "view",
			"type": "function",
			"constant": true
		},
		{
			"inputs": [
				{
					"internalType": "uint8",
					"name": "_teamSelected",
					"type": "uint8"
				}
			],
			"name": "bet",
			"outputs": [],
			"stateMutability": "payable",
			"type": "function",
			"payable": true
		},
		{
			"inputs": [
				{
					"internalType": "uint16",
					"name": "teamWinner",
					"type": "uint16"
				}
			],
			"name": "distributePrizes",
			"outputs": [],
			"stateMutability": "nonpayable",
			"type": "function"
		},
		{
			"inputs": [],
			"name": "AmountOne",
			"outputs": [
				{
					"internalType": "uint256",
					"name": "",
					"type": "uint256"
				}
			],
			"stateMutability": "view",
			"type": "function",
			"constant": true
		},
		{
			"inputs": [],
			"name": "AmountTwo",
			"outputs": [
				{
					"internalType": "uint256",
					"name": "",
					"type": "uint256"
				}
			],
			"stateMutability": "view",
			"type": "function",
			"constant": true
		}
	],
	"bytecode": "0x608060405234801561001057600080fd5b50336000806101000a81548173ffffffffffffffffffffffffffffffffffffffff021916908373ffffffffffffffffffffffffffffffffffffffff160217905550655af3107a4000600181905550610e7e8061006d6000396000f3fe6080604052600436106100ab5760003560e01c80637904f688116100645780637904f688146101c15780638afadeb5146101ea5780638da5cb5b14610215578063c38a8afd14610240578063d0821b0e1461026b578063f71d96cb14610287576100ac565b80634081d916146100ae57806341c0e1b5146100eb5780634996d51d146101025780634b1146911461012d5780635bf6b19f1461016b5780636573359214610196576100ac565b5b005b3480156100ba57600080fd5b506100d560048036038101906100d09190610a42565b6102c4565b6040516100e29190610a8a565b60405180910390f35b3480156100f757600080fd5b50610100610372565b005b34801561010e57600080fd5b50610117610400565b6040516101249190610abe565b60405180910390f35b34801561013957600080fd5b50610154600480360381019061014f9190610b17565b61040a565b604051610162929190610b61565b60405180910390f35b34801561017757600080fd5b5061018061043c565b60405161018d9190610abe565b60405180910390f35b3480156101a257600080fd5b506101ab610442565b6040516101b89190610abe565b60405180910390f35b3480156101cd57600080fd5b506101e860048036038101906101e39190610bb6565b61044c565b005b3480156101f657600080fd5b506101ff61079c565b60405161020c9190610abe565b60405180910390f35b34801561022157600080fd5b5061022a6107a2565b6040516102379190610bf2565b60405180910390f35b34801561024c57600080fd5b506102556107c6565b6040516102629190610abe565b60405180910390f35b61028560048036038101906102809190610c46565b6107cc565b005b34801561029357600080fd5b506102ae60048036038101906102a99190610c9f565b61093e565b6040516102bb9190610bf2565b60405180910390f35b600080600090505b600480549050811015610367578273ffffffffffffffffffffffffffffffffffffffff166004828154811061030457610303610ccc565b5b9060005260206000200160009054906101000a900473ffffffffffffffffffffffffffffffffffffffff1673ffffffffffffffffffffffffffffffffffffffff160361035457600191505061036d565b808061035f90610d2a565b9150506102cc565b50600090505b919050565b60008054906101000a900473ffffffffffffffffffffffffffffffffffffffff1673ffffffffffffffffffffffffffffffffffffffff163373ffffffffffffffffffffffffffffffffffffffff16036103fe5760008054906101000a900473ffffffffffffffffffffffffffffffffffffffff1673ffffffffffffffffffffffffffffffffffffffff16ff5b565b6000600254905090565b60056020528060005260406000206000915090508060000154908060010160009054906101000a900461ffff16905082565b60035481565b6000600354905090565b61045461097d565b60008060008080600080600090505b60048054905081101561057e576004818154811061048457610483610ccc565b5b9060005260206000200160009054906101000a900473ffffffffffffffffffffffffffffffffffffffff1691508861ffff16600560008473ffffffffffffffffffffffffffffffffffffffff1673ffffffffffffffffffffffffffffffffffffffff16815260200190815260200160002060010160009054906101000a900461ffff1661ffff160361056b578188886103e8811061052557610524610ccc565b5b602002019073ffffffffffffffffffffffffffffffffffffffff16908173ffffffffffffffffffffffffffffffffffffffff1681525050868061056790610d2a565b9750505b808061057690610d2a565b915050610463565b5060018861ffff160361059a57600354945060025493506105a5565b600254945060035493505b60005b8681101561070c57600073ffffffffffffffffffffffffffffffffffffffff1688826103e881106105dc576105db610ccc565b5b602002015173ffffffffffffffffffffffffffffffffffffffff16146106185787816103e881106106105761060f610ccc565b5b602002015193505b600560008573ffffffffffffffffffffffffffffffffffffffff1673ffffffffffffffffffffffffffffffffffffffff16815260200190815260200160002060000154925087816103e8811061067157610670610ccc565b5b602002015173ffffffffffffffffffffffffffffffffffffffff166108fc612710876127108a6106a19190610d72565b6106ab9190610de3565b6127106106b89190610e14565b866106c39190610d72565b6106cd9190610de3565b9081150290604051600060405180830381858888f193505050501580156106f8573d6000803e3d6000fd5b50808061070490610d2a565b9150506105a8565b50600560008273ffffffffffffffffffffffffffffffffffffffff1673ffffffffffffffffffffffffffffffffffffffff1681526020019081526020016000206000808201600090556001820160006101000a81549061ffff021916905550506004600061077a91906109a1565b6000945060009350600060028190555060006003819055505050505050505050565b60025481565b60008054906101000a900473ffffffffffffffffffffffffffffffffffffffff1681565b60015481565b6107d5336102c4565b156107df57600080fd5b6001543410156107ee57600080fd5b34600560003373ffffffffffffffffffffffffffffffffffffffff1673ffffffffffffffffffffffffffffffffffffffff168152602001908152602001600020600001819055508060ff16600560003373ffffffffffffffffffffffffffffffffffffffff1673ffffffffffffffffffffffffffffffffffffffff16815260200190815260200160002060010160006101000a81548161ffff021916908361ffff1602179055506004339080600181540180825580915050600190039060005260206000200160009091909190916101000a81548173ffffffffffffffffffffffffffffffffffffffff021916908373ffffffffffffffffffffffffffffffffffffffff16021790555060018160ff16036109215734600260008282546109159190610e14565b9250508190555061093b565b34600360008282546109339190610e14565b925050819055505b50565b6004818154811061094e57600080fd5b906000526020600020016000915054906101000a900473ffffffffffffffffffffffffffffffffffffffff1681565b60405180617d0001604052806103e890602082028036833780820191505090505090565b50805460008255906000526020600020908101906109bf91906109c2565b50565b5b808211156109db5760008160009055506001016109c3565b5090565b600080fd5b600073ffffffffffffffffffffffffffffffffffffffff82169050919050565b6000610a0f826109e4565b9050919050565b610a1f81610a04565b8114610a2a57600080fd5b50565b600081359050610a3c81610a16565b92915050565b600060208284031215610a5857610a576109df565b5b6000610a6684828501610a2d565b91505092915050565b60008115159050919050565b610a8481610a6f565b82525050565b6000602082019050610a9f6000830184610a7b565b92915050565b6000819050919050565b610ab881610aa5565b82525050565b6000602082019050610ad36000830184610aaf565b92915050565b6000610ae4826109e4565b9050919050565b610af481610ad9565b8114610aff57600080fd5b50565b600081359050610b1181610aeb565b92915050565b600060208284031215610b2d57610b2c6109df565b5b6000610b3b84828501610b02565b91505092915050565b600061ffff82169050919050565b610b5b81610b44565b82525050565b6000604082019050610b766000830185610aaf565b610b836020830184610b52565b9392505050565b610b9381610b44565b8114610b9e57600080fd5b50565b600081359050610bb081610b8a565b92915050565b600060208284031215610bcc57610bcb6109df565b5b6000610bda84828501610ba1565b91505092915050565b610bec81610a04565b82525050565b6000602082019050610c076000830184610be3565b92915050565b600060ff82169050919050565b610c2381610c0d565b8114610c2e57600080fd5b50565b600081359050610c4081610c1a565b92915050565b600060208284031215610c5c57610c5b6109df565b5b6000610c6a84828501610c31565b91505092915050565b610c7c81610aa5565b8114610c8757600080fd5b50565b600081359050610c9981610c73565b92915050565b600060208284031215610cb557610cb46109df565b5b6000610cc384828501610c8a565b91505092915050565b7f4e487b7100000000000000000000000000000000000000000000000000000000600052603260045260246000fd5b7f4e487b7100000000000000000000000000000000000000000000000000000000600052601160045260246000fd5b6000610d3582610aa5565b91507fffffffffffffffffffffffffffffffffffffffffffffffffffffffffffffffff8203610d6757610d66610cfb565b5b600182019050919050565b6000610d7d82610aa5565b9150610d8883610aa5565b9250828202610d9681610aa5565b91508282048414831517610dad57610dac610cfb565b5b5092915050565b7f4e487b7100000000000000000000000000000000000000000000000000000000600052601260045260246000fd5b6000610dee82610aa5565b9150610df983610aa5565b925082610e0957610e08610db4565b5b828204905092915050565b6000610e1f82610aa5565b9150610e2a83610aa5565b9250828201905080821115610e4257610e41610cfb565b5b9291505056fea26469706673582212200181198ff932d8e4826b247c30ead86a8623e6fec6d4c51cd49addf83171ea3464736f6c63430008110033",
	"immutableReferences": {},
	"source": "pragma solidity ^0.8.0;\n\ncontract Betting {\n    address payable public owner;\n    uint256 public minimumBet;\n    uint256 public totalBetsOne;\n    uint256 public totalBetsTwo;\n    address payable[] public players;\n    struct Player {\n        uint256 amountBet;\n        uint16 teamSelected;\n    }\n    // The address of the player and => the user info\n    mapping(address => Player) public playerInfo;\n\n    fallback() external payable {}\n\n    constructor() {\n        owner = payable(msg.sender);\n        minimumBet = 100000000000000;\n    }\n\n    function kill() public {\n        if (msg.sender == owner) selfdestruct(owner);\n    }\n\n    function checkPlayerExists(address payable player)\n        public\n        view\n        returns (bool)\n    {\n        for (uint256 i = 0; i < players.length; i++) {\n            if (players[i] == player) return true;\n        }\n        return false;\n    }\n\n    function bet(uint8 _teamSelected) public payable {\n        //The first require is used to check if the player already exist\n        require(!checkPlayerExists(payable(msg.sender)));\n        //The second one is used to see if the value sended by the player is\n        //Higher than the minimum value\n        require(msg.value >= minimumBet);\n        //We set the player informations : amount of the bet and selected team\n        playerInfo[msg.sender].amountBet = msg.value;\n        playerInfo[msg.sender].teamSelected = _teamSelected;\n        //then we add the address of the player to the players array\n        players.push(payable(msg.sender));\n        //at the end, we increment the stakes of the team selected with the player bet\n        if (_teamSelected == 1) {\n            totalBetsOne += msg.value;\n        } else {\n            totalBetsTwo += msg.value;\n        }\n    }\n\n    // Generates a number between 1 and 10 that will be the winner\n    function distributePrizes(uint16 teamWinner) public {\n        address payable[1000] memory winners;\n        //We have to create a temporary in memory array with fixed size\n        //Let's choose 1000\n        uint256 count = 0; // This is the count for the array of winners\n        uint256 LoserBet = 0; //This will take the value of all losers bet\n        uint256 WinnerBet = 0; //This will take the value of all winners bet\n        address add;\n        uint256 bet;\n        address payable playerAddress;\n        //We loop through the player array to check who selected the winner team\n        for (uint256 i = 0; i < players.length; i++) {\n            playerAddress = players[i];\n            //If the player selected the winner team\n            //We add his address to the winners array\n            if (playerInfo[playerAddress].teamSelected == teamWinner) {\n                winners[count] = playerAddress;\n                count++;\n            }\n        }\n        //We define which bet sum is the Loser one and which one is the winner\n        if (teamWinner == 1) {\n            LoserBet = totalBetsTwo;\n            WinnerBet = totalBetsOne;\n        } else {\n            LoserBet = totalBetsOne;\n            WinnerBet = totalBetsTwo;\n        }\n        //We loop through the array of winners, to give ethers to the winners\n        for (uint256 j = 0; j < count; j++) {\n            // Check that the address in this fixed array is not empty\n            if (winners[j] != address(0)) add = winners[j];\n            bet = playerInfo[add].amountBet;\n            //Transfer the money to the user\n            winners[j].transfer(\n                (bet * (10000 + ((LoserBet * 10000) / WinnerBet))) / 10000\n            );\n        }\n\n        delete playerInfo[playerAddress]; // Delete all the players\n        delete players; // Delete all the players array\n        LoserBet = 0; //reinitialize the bets\n        WinnerBet = 0;\n        totalBetsOne = 0;\n        totalBetsTwo = 0;\n    }\n\n    function AmountOne() public view returns (uint256) {\n        return totalBetsOne;\n    }\n\n    function AmountTwo() public view returns (uint256) {\n        return totalBetsTwo;\n    }\n}\n",
	"sourcePath": "/Users/vyas/work/truffle/bet-eth/contracts/Betting.sol",
	"compiler": {
		"name": "solc",
		"version": "0.8.17+commit.8df45f5f.Emscripten.clang"
	},
	"schemaVersion": "3.4.10",
	"updatedAt": "2022-12-03T16:07:13.599Z",
	"networkType": "ethereum",
	"devdoc": {
		"kind": "dev",
		"methods": {},
		"version": 1
	},
	"userdoc": {
		"kind": "user",
		"methods": {},
		"version": 1
	}
}